{
  "contractName": "Land",
  "abi": [
    {
      "inputs": [
        {
          "internalType": "string",
          "name": "_name",
          "type": "string"
        },
        {
          "internalType": "string",
          "name": "_symbol",
          "type": "string"
        },
        {
          "internalType": "uint256",
          "name": "_cost",
          "type": "uint256"
        }
      ],
      "stateMutability": "nonpayable",
      "type": "constructor"
    },
    {
      "anonymous": false,
      "inputs": [
        {
          "indexed": true,
          "internalType": "address",
          "name": "owner",
          "type": "address"
        },
        {
          "indexed": true,
          "internalType": "address",
          "name": "approved",
          "type": "address"
        },
        {
          "indexed": true,
          "internalType": "uint256",
          "name": "tokenId",
          "type": "uint256"
        }
      ],
      "name": "Approval",
      "type": "event"
    },
    {
      "anonymous": false,
      "inputs": [
        {
          "indexed": true,
          "internalType": "address",
          "name": "owner",
          "type": "address"
        },
        {
          "indexed": true,
          "internalType": "address",
          "name": "operator",
          "type": "address"
        },
        {
          "indexed": false,
          "internalType": "bool",
          "name": "approved",
          "type": "bool"
        }
      ],
      "name": "ApprovalForAll",
      "type": "event"
    },
    {
      "anonymous": false,
      "inputs": [
        {
          "indexed": true,
          "internalType": "address",
          "name": "from",
          "type": "address"
        },
        {
          "indexed": true,
          "internalType": "address",
          "name": "to",
          "type": "address"
        },
        {
          "indexed": true,
          "internalType": "uint256",
          "name": "tokenId",
          "type": "uint256"
        }
      ],
      "name": "Transfer",
      "type": "event"
    },
    {
      "inputs": [
        {
          "internalType": "address",
          "name": "to",
          "type": "address"
        },
        {
          "internalType": "uint256",
          "name": "tokenId",
          "type": "uint256"
        }
      ],
      "name": "approve",
      "outputs": [],
      "stateMutability": "nonpayable",
      "type": "function"
    },
    {
      "inputs": [
        {
          "internalType": "address",
          "name": "owner",
          "type": "address"
        }
      ],
      "name": "balanceOf",
      "outputs": [
        {
          "internalType": "uint256",
          "name": "",
          "type": "uint256"
        }
      ],
      "stateMutability": "view",
      "type": "function",
      "constant": true
    },
    {
      "inputs": [
        {
          "internalType": "uint256",
          "name": "",
          "type": "uint256"
        }
      ],
      "name": "buildings",
      "outputs": [
        {
          "internalType": "string",
          "name": "name",
          "type": "string"
        },
        {
          "internalType": "address",
          "name": "owner",
          "type": "address"
        },
        {
          "internalType": "int256",
          "name": "posX",
          "type": "int256"
        },
        {
          "internalType": "int256",
          "name": "posY",
          "type": "int256"
        },
        {
          "internalType": "int256",
          "name": "posZ",
          "type": "int256"
        },
        {
          "internalType": "uint256",
          "name": "sizeX",
          "type": "uint256"
        },
        {
          "internalType": "uint256",
          "name": "sizeY",
          "type": "uint256"
        },
        {
          "internalType": "uint256",
          "name": "sizeZ",
          "type": "uint256"
        }
      ],
      "stateMutability": "view",
      "type": "function",
      "constant": true
    },
    {
      "inputs": [],
      "name": "cost",
      "outputs": [
        {
          "internalType": "uint256",
          "name": "",
          "type": "uint256"
        }
      ],
      "stateMutability": "view",
      "type": "function",
      "constant": true
    },
    {
      "inputs": [
        {
          "internalType": "uint256",
          "name": "tokenId",
          "type": "uint256"
        }
      ],
      "name": "getApproved",
      "outputs": [
        {
          "internalType": "address",
          "name": "",
          "type": "address"
        }
      ],
      "stateMutability": "view",
      "type": "function",
      "constant": true
    },
    {
      "inputs": [
        {
          "internalType": "address",
          "name": "owner",
          "type": "address"
        },
        {
          "internalType": "address",
          "name": "operator",
          "type": "address"
        }
      ],
      "name": "isApprovedForAll",
      "outputs": [
        {
          "internalType": "bool",
          "name": "",
          "type": "bool"
        }
      ],
      "stateMutability": "view",
      "type": "function",
      "constant": true
    },
    {
      "inputs": [],
      "name": "maxSupply",
      "outputs": [
        {
          "internalType": "uint256",
          "name": "",
          "type": "uint256"
        }
      ],
      "stateMutability": "view",
      "type": "function",
      "constant": true
    },
    {
      "inputs": [],
      "name": "name",
      "outputs": [
        {
          "internalType": "string",
          "name": "",
          "type": "string"
        }
      ],
      "stateMutability": "view",
      "type": "function",
      "constant": true
    },
    {
      "inputs": [
        {
          "internalType": "uint256",
          "name": "tokenId",
          "type": "uint256"
        }
      ],
      "name": "ownerOf",
      "outputs": [
        {
          "internalType": "address",
          "name": "",
          "type": "address"
        }
      ],
      "stateMutability": "view",
      "type": "function",
      "constant": true
    },
    {
      "inputs": [
        {
          "internalType": "uint256",
          "name": "",
          "type": "uint256"
        }
      ],
      "name": "plazas",
      "outputs": [
        {
          "internalType": "string",
          "name": "name",
          "type": "string"
        },
        {
          "internalType": "address",
          "name": "owner",
          "type": "address"
        },
        {
          "internalType": "int256",
          "name": "posX",
          "type": "int256"
        },
        {
          "internalType": "int256",
          "name": "posY",
          "type": "int256"
        },
        {
          "internalType": "int256",
          "name": "posZ",
          "type": "int256"
        },
        {
          "internalType": "uint256",
          "name": "sizeX",
          "type": "uint256"
        },
        {
          "internalType": "uint256",
          "name": "sizeY",
          "type": "uint256"
        },
        {
          "internalType": "uint256",
          "name": "sizeZ",
          "type": "uint256"
        }
      ],
      "stateMutability": "view",
      "type": "function",
      "constant": true
    },
    {
      "inputs": [
        {
          "internalType": "address",
          "name": "operator",
          "type": "address"
        },
        {
          "internalType": "bool",
          "name": "approved",
          "type": "bool"
        }
      ],
      "name": "setApprovalForAll",
      "outputs": [],
      "stateMutability": "nonpayable",
      "type": "function"
    },
    {
      "inputs": [
        {
          "internalType": "bytes4",
          "name": "interfaceId",
          "type": "bytes4"
        }
      ],
      "name": "supportsInterface",
      "outputs": [
        {
          "internalType": "bool",
          "name": "",
          "type": "bool"
        }
      ],
      "stateMutability": "view",
      "type": "function",
      "constant": true
    },
    {
      "inputs": [],
      "name": "symbol",
      "outputs": [
        {
          "internalType": "string",
          "name": "",
          "type": "string"
        }
      ],
      "stateMutability": "view",
      "type": "function",
      "constant": true
    },
    {
      "inputs": [
        {
          "internalType": "uint256",
          "name": "tokenId",
          "type": "uint256"
        }
      ],
      "name": "tokenURI",
      "outputs": [
        {
          "internalType": "string",
          "name": "",
          "type": "string"
        }
      ],
      "stateMutability": "view",
      "type": "function",
      "constant": true
    },
    {
      "inputs": [],
      "name": "totalSupply",
      "outputs": [
        {
          "internalType": "uint256",
          "name": "",
          "type": "uint256"
        }
      ],
      "stateMutability": "view",
      "type": "function",
      "constant": true
    },
    {
      "inputs": [
        {
          "internalType": "uint256",
          "name": "_id",
          "type": "uint256"
        }
      ],
      "name": "mint",
      "outputs": [],
      "stateMutability": "payable",
      "type": "function",
      "payable": true
    },
    {
      "inputs": [
        {
          "internalType": "address",
          "name": "from",
          "type": "address"
        },
        {
          "internalType": "address",
          "name": "to",
          "type": "address"
        },
        {
          "internalType": "uint256",
          "name": "tokenId",
          "type": "uint256"
        }
      ],
      "name": "transferFrom",
      "outputs": [],
      "stateMutability": "nonpayable",
      "type": "function"
    },
    {
      "inputs": [
        {
          "internalType": "address",
          "name": "from",
          "type": "address"
        },
        {
          "internalType": "address",
          "name": "to",
          "type": "address"
        },
        {
          "internalType": "uint256",
          "name": "tokenId",
          "type": "uint256"
        }
      ],
      "name": "safeTransferFrom",
      "outputs": [],
      "stateMutability": "nonpayable",
      "type": "function"
    },
    {
      "inputs": [
        {
          "internalType": "address",
          "name": "from",
          "type": "address"
        },
        {
          "internalType": "address",
          "name": "to",
          "type": "address"
        },
        {
          "internalType": "uint256",
          "name": "tokenId",
          "type": "uint256"
        },
        {
          "internalType": "bytes",
          "name": "_data",
          "type": "bytes"
        }
      ],
      "name": "safeTransferFrom",
      "outputs": [],
      "stateMutability": "nonpayable",
      "type": "function"
    },
    {
      "inputs": [],
      "name": "getBuildings",
      "outputs": [
        {
          "components": [
            {
              "internalType": "string",
              "name": "name",
              "type": "string"
            },
            {
              "internalType": "address",
              "name": "owner",
              "type": "address"
            },
            {
              "internalType": "int256",
              "name": "posX",
              "type": "int256"
            },
            {
              "internalType": "int256",
              "name": "posY",
              "type": "int256"
            },
            {
              "internalType": "int256",
              "name": "posZ",
              "type": "int256"
            },
            {
              "internalType": "uint256",
              "name": "sizeX",
              "type": "uint256"
            },
            {
              "internalType": "uint256",
              "name": "sizeY",
              "type": "uint256"
            },
            {
              "internalType": "uint256",
              "name": "sizeZ",
              "type": "uint256"
            }
          ],
          "internalType": "struct Land.Building[]",
          "name": "",
          "type": "tuple[]"
        }
      ],
      "stateMutability": "view",
      "type": "function",
      "constant": true
    },
    {
      "inputs": [
        {
          "internalType": "uint256",
          "name": "_id",
          "type": "uint256"
        }
      ],
      "name": "getBuilding",
      "outputs": [
        {
          "components": [
            {
              "internalType": "string",
              "name": "name",
              "type": "string"
            },
            {
              "internalType": "address",
              "name": "owner",
              "type": "address"
            },
            {
              "internalType": "int256",
              "name": "posX",
              "type": "int256"
            },
            {
              "internalType": "int256",
              "name": "posY",
              "type": "int256"
            },
            {
              "internalType": "int256",
              "name": "posZ",
              "type": "int256"
            },
            {
              "internalType": "uint256",
              "name": "sizeX",
              "type": "uint256"
            },
            {
              "internalType": "uint256",
              "name": "sizeY",
              "type": "uint256"
            },
            {
              "internalType": "uint256",
              "name": "sizeZ",
              "type": "uint256"
            }
          ],
          "internalType": "struct Land.Building",
          "name": "",
          "type": "tuple"
        }
      ],
      "stateMutability": "view",
      "type": "function",
      "constant": true
    },
    {
      "inputs": [],
      "name": "getPlazas",
      "outputs": [
        {
          "components": [
            {
              "internalType": "string",
              "name": "name",
              "type": "string"
            },
            {
              "internalType": "address",
              "name": "owner",
              "type": "address"
            },
            {
              "internalType": "int256",
              "name": "posX",
              "type": "int256"
            },
            {
              "internalType": "int256",
              "name": "posY",
              "type": "int256"
            },
            {
              "internalType": "int256",
              "name": "posZ",
              "type": "int256"
            },
            {
              "internalType": "uint256",
              "name": "sizeX",
              "type": "uint256"
            },
            {
              "internalType": "uint256",
              "name": "sizeY",
              "type": "uint256"
            },
            {
              "internalType": "uint256",
              "name": "sizeZ",
              "type": "uint256"
            }
          ],
          "internalType": "struct Land.Plaza[]",
          "name": "",
          "type": "tuple[]"
        }
      ],
      "stateMutability": "view",
      "type": "function",
      "constant": true
    },
    {
      "inputs": [
        {
          "internalType": "uint256",
          "name": "_id",
          "type": "uint256"
        }
      ],
      "name": "getPlaza",
      "outputs": [
        {
          "components": [
            {
              "internalType": "string",
              "name": "name",
              "type": "string"
            },
            {
              "internalType": "address",
              "name": "owner",
              "type": "address"
            },
            {
              "internalType": "int256",
              "name": "posX",
              "type": "int256"
            },
            {
              "internalType": "int256",
              "name": "posY",
              "type": "int256"
            },
            {
              "internalType": "int256",
              "name": "posZ",
              "type": "int256"
            },
            {
              "internalType": "uint256",
              "name": "sizeX",
              "type": "uint256"
            },
            {
              "internalType": "uint256",
              "name": "sizeY",
              "type": "uint256"
            },
            {
              "internalType": "uint256",
              "name": "sizeZ",
              "type": "uint256"
            }
          ],
          "internalType": "struct Land.Plaza",
          "name": "",
          "type": "tuple"
        }
      ],
      "stateMutability": "view",
      "type": "function",
      "constant": true
    }
  ],
  "bytecode": "0x6080604052670de0b6b3a7640000600655600560075560006008553480156200002757600080fd5b5060405162004a7b38038062004a7b83398181016040528101906200004d919062000a4b565b828281600090805190602001906200006792919062000912565b5080600190805190602001906200008092919062000912565b5050508060068190555060096040518061010001604052806040518060400160405280600981526020017f436974792048616c6c00000000000000000000000000000000000000000000008152508152602001600073ffffffffffffffffffffffffffffffffffffffff168152602001600081526020016000815260200160008152602001600a8152602001600a8152602001600a815250908060018154018082558091505060019003906000526020600020906008020160009091909190915060008201518160000190805190602001906200015f92919062000912565b5060208201518160010160006101000a81548173ffffffffffffffffffffffffffffffffffffffff021916908373ffffffffffffffffffffffffffffffffffffffff16021790555060408201518160020155606082015181600301556080820151816004015560a0820151816005015560c0820151816006015560e08201518160070155505060096040518061010001604052806040518060400160405280600781526020017f5374616469756d000000000000000000000000000000000000000000000000008152508152602001600073ffffffffffffffffffffffffffffffffffffffff16815260200160008152602001600a815260200160008152602001600a815260200160058152602001600381525090806001815401808255809150506001900390600052602060002090600802016000909190919091506000820151816000019080519060200190620002ba92919062000912565b5060208201518160010160006101000a81548173ffffffffffffffffffffffffffffffffffffffff021916908373ffffffffffffffffffffffffffffffffffffffff16021790555060408201518160020155606082015181600301556080820151816004015560a0820151816005015560c0820151816006015560e08201518160070155505060096040518061010001604052806040518060400160405280601181526020017f44726578656c20556e69766572736974790000000000000000000000000000008152508152602001600073ffffffffffffffffffffffffffffffffffffffff168152602001600081526020017ffffffffffffffffffffffffffffffffffffffffffffffffffffffffffffffff6815260200160008152602001600a8152602001600981526020016003815250908060018154018082558091505060019003906000526020600020906008020160009091909190915060008201518160000190805190602001906200043492919062000912565b5060208201518160010160006101000a81548173ffffffffffffffffffffffffffffffffffffffff021916908373ffffffffffffffffffffffffffffffffffffffff16021790555060408201518160020155606082015181600301556080820151816004015560a0820151816005015560c0820151816006015560e08201518160070155505060096040518061010001604052806040518060400160405280601081526020017f53686f7070696e6720506c617a612031000000000000000000000000000000008152508152602001600073ffffffffffffffffffffffffffffffffffffffff168152602001600a8152602001600081526020016000815260200160058152602001601981526020016002815250908060018154018082558091505060019003906000526020600020906008020160009091909190915060008201518160000190805190602001906200058f92919062000912565b5060208201518160010160006101000a81548173ffffffffffffffffffffffffffffffffffffffff021916908373ffffffffffffffffffffffffffffffffffffffff16021790555060408201518160020155606082015181600301556080820151816004015560a0820151816005015560c0820151816006015560e08201518160070155505060096040518061010001604052806040518060400160405280601081526020017f53686f7070696e6720506c617a612032000000000000000000000000000000008152508152602001600073ffffffffffffffffffffffffffffffffffffffff1681526020017ffffffffffffffffffffffffffffffffffffffffffffffffffffffffffffffff68152602001600081526020016000815260200160058152602001601981526020016005815250908060018154018082558091505060019003906000526020600020906008020160009091909190915060008201518160000190805190602001906200070992919062000912565b5060208201518160010160006101000a81548173ffffffffffffffffffffffffffffffffffffffff021916908373ffffffffffffffffffffffffffffffffffffffff16021790555060408201518160020155606082015181600301556080820151816004015560a0820151816005015560c0820151816006015560e082015181600701555050600a6040518061010001604052806040518060400160405280601081526020017f53686f7070696e6720506c617a612033000000000000000000000000000000008152508152602001600073ffffffffffffffffffffffffffffffffffffffff1681526020017fffffffffffffffffffffffffffffffffffffffffffffffffffffffffffffffec8152602001600a8152602001601e81526020016005815260200160198152602001600f815250908060018154018082558091505060019003906000526020600020906008020160009091909190915060008201518160000190805190602001906200088392919062000912565b5060208201518160010160006101000a81548173ffffffffffffffffffffffffffffffffffffffff021916908373ffffffffffffffffffffffffffffffffffffffff16021790555060408201518160020155606082015181600301556080820151816004015560a0820151816005015560c0820151816006015560e08201518160070155505050505062000c67565b828054620009209062000b72565b90600052602060002090601f01602090048101928262000944576000855562000990565b82601f106200095f57805160ff191683800117855562000990565b8280016001018555821562000990579182015b828111156200098f57825182559160200191906001019062000972565b5b5090506200099f9190620009a3565b5090565b5b80821115620009be576000816000905550600101620009a4565b5090565b6000620009d9620009d38462000afc565b62000ad3565b905082815260208101848484011115620009f257600080fd5b620009ff84828562000b3c565b509392505050565b600082601f83011262000a1957600080fd5b815162000a2b848260208601620009c2565b91505092915050565b60008151905062000a458162000c4d565b92915050565b60008060006060848603121562000a6157600080fd5b600084015167ffffffffffffffff81111562000a7c57600080fd5b62000a8a8682870162000a07565b935050602084015167ffffffffffffffff81111562000aa857600080fd5b62000ab68682870162000a07565b925050604062000ac98682870162000a34565b9150509250925092565b600062000adf62000af2565b905062000aed828262000ba8565b919050565b6000604051905090565b600067ffffffffffffffff82111562000b1a5762000b1962000c0d565b5b62000b258262000c3c565b9050602081019050919050565b6000819050919050565b60005b8381101562000b5c57808201518184015260208101905062000b3f565b8381111562000b6c576000848401525b50505050565b6000600282049050600182168062000b8b57607f821691505b6020821081141562000ba25762000ba162000bde565b5b50919050565b62000bb38262000c3c565b810181811067ffffffffffffffff8211171562000bd55762000bd462000c0d565b5b80604052505050565b7f4e487b7100000000000000000000000000000000000000000000000000000000600052602260045260246000fd5b7f4e487b7100000000000000000000000000000000000000000000000000000000600052604160045260246000fd5b6000601f19601f8301169050919050565b62000c588162000b32565b811462000c6457600080fd5b50565b613e048062000c776000396000f3fe6080604052600436106101405760003560e01c80636352211e116100b6578063a22cb4651161006f578063a22cb465146104a9578063b88d4fde146104d2578063c87b56dd146104fb578063d5abeb0114610538578063d9cf6a2614610563578063e985e9c51461058e57610140565b80636352211e1461036e57806370a08231146103ab5780637a352b56146103e857806395d89b41146104255780639dfd8b0214610450578063a0712d681461048d57610140565b806318160ddd1161010857806318160ddd1461023e57806323b872dd1461026957806342842e0e146102925780634c96a062146102bb57806353991b65146102ff5780635978ff8a1461034357610140565b806301ffc9a71461014557806306fdde0314610182578063081812fc146101ad578063095ea7b3146101ea57806313faede614610213575b600080fd5b34801561015157600080fd5b5061016c60048036038101906101679190612a25565b6105cb565b6040516101799190613270565b60405180910390f35b34801561018e57600080fd5b506101976106ad565b6040516101a4919061328b565b60405180910390f35b3480156101b957600080fd5b506101d460048036038101906101cf9190612a77565b61073f565b6040516101e191906131c5565b60405180910390f35b3480156101f657600080fd5b50610211600480360381019061020c91906129e9565b6107c4565b005b34801561021f57600080fd5b506102286108dc565b6040516102359190613536565b60405180910390f35b34801561024a57600080fd5b506102536108e2565b6040516102609190613536565b60405180910390f35b34801561027557600080fd5b50610290600480360381019061028b91906128e3565b6108e8565b005b34801561029e57600080fd5b506102b960048036038101906102b491906128e3565b610a74565b005b3480156102c757600080fd5b506102e260048036038101906102dd9190612a77565b610a94565b6040516102f69897969594939291906132ad565b60405180910390f35b34801561030b57600080fd5b5061032660048036038101906103219190612a77565b610b94565b60405161033a9897969594939291906132ad565b60405180910390f35b34801561034f57600080fd5b50610358610c94565b604051610365919061324e565b60405180910390f35b34801561037a57600080fd5b5061039560048036038101906103909190612a77565b610e18565b6040516103a291906131c5565b60405180910390f35b3480156103b757600080fd5b506103d260048036038101906103cd919061287e565b610eca565b6040516103df9190613536565b60405180910390f35b3480156103f457600080fd5b5061040f600480360381019061040a9190612a77565b610f82565b60405161041c9190613514565b60405180910390f35b34801561043157600080fd5b5061043a611115565b604051610447919061328b565b60405180910390f35b34801561045c57600080fd5b5061047760048036038101906104729190612a77565b6111a7565b60405161048491906134f2565b60405180910390f35b6104a760048036038101906104a29190612a77565b61133a565b005b3480156104b557600080fd5b506104d060048036038101906104cb91906129ad565b61160e565b005b3480156104de57600080fd5b506104f960048036038101906104f49190612932565b611624565b005b34801561050757600080fd5b50610522600480360381019061051d9190612a77565b6117b2565b60405161052f919061328b565b60405180910390f35b34801561054457600080fd5b5061054d611859565b60405161055a9190613536565b60405180910390f35b34801561056f57600080fd5b5061057861185f565b604051610585919061322c565b60405180910390f35b34801561059a57600080fd5b506105b560048036038101906105b091906128a7565b6119e3565b6040516105c29190613270565b60405180910390f35b60007f80ac58cd000000000000000000000000000000000000000000000000000000007bffffffffffffffffffffffffffffffffffffffffffffffffffffffff1916827bffffffffffffffffffffffffffffffffffffffffffffffffffffffff1916148061069657507f5b5e139f000000000000000000000000000000000000000000000000000000007bffffffffffffffffffffffffffffffffffffffffffffffffffffffff1916827bffffffffffffffffffffffffffffffffffffffffffffffffffffffff1916145b806106a657506106a582611a77565b5b9050919050565b6060600080546106bc906137e8565b80601f01602080910402602001604051908101604052809291908181526020018280546106e8906137e8565b80156107355780601f1061070a57610100808354040283529160200191610735565b820191906000526020600020905b81548152906001019060200180831161071857829003601f168201915b5050505050905090565b600061074a82611ae1565b610789576040517f08c379a000000000000000000000000000000000000000000000000000000000815260040161078090613472565b60405180910390fd5b6004600083815260200190815260200160002060009054906101000a900473ffffffffffffffffffffffffffffffffffffffff169050919050565b60006107cf82610e18565b90508073ffffffffffffffffffffffffffffffffffffffff168373ffffffffffffffffffffffffffffffffffffffff161415610840576040517f08c379a0000000000000000000000000000000000000000000000000000000008152600401610837906134b2565b60405180910390fd5b8073ffffffffffffffffffffffffffffffffffffffff1661085f611b4d565b73ffffffffffffffffffffffffffffffffffffffff16148061088e575061088d81610888611b4d565b6119e3565b5b6108cd576040517f08c379a00000000000000000000000000000000000000000000000000000000081526004016108c4906133f2565b60405180910390fd5b6108d78383611b55565b505050565b60065481565b60085481565b6108f96108f3611b4d565b82611c0e565b610938576040517f08c379a000000000000000000000000000000000000000000000000000000000815260040161092f906134d2565b60405180910390fd5b81600960018361094891906136f4565b8154811061097f577f4e487b7100000000000000000000000000000000000000000000000000000000600052603260045260246000fd5b906000526020600020906008020160010160006101000a81548173ffffffffffffffffffffffffffffffffffffffff021916908373ffffffffffffffffffffffffffffffffffffffff16021790555081600a6001836109de91906136f4565b81548110610a15577f4e487b7100000000000000000000000000000000000000000000000000000000600052603260045260246000fd5b906000526020600020906008020160010160006101000a81548173ffffffffffffffffffffffffffffffffffffffff021916908373ffffffffffffffffffffffffffffffffffffffff160217905550610a6f838383611cec565b505050565b610a8f83838360405180602001604052806000815250611624565b505050565b60098181548110610aa457600080fd5b9060005260206000209060080201600091509050806000018054610ac7906137e8565b80601f0160208091040260200160405190810160405280929190818152602001828054610af3906137e8565b8015610b405780601f10610b1557610100808354040283529160200191610b40565b820191906000526020600020905b815481529060010190602001808311610b2357829003601f168201915b5050505050908060010160009054906101000a900473ffffffffffffffffffffffffffffffffffffffff16908060020154908060030154908060040154908060050154908060060154908060070154905088565b600a8181548110610ba457600080fd5b9060005260206000209060080201600091509050806000018054610bc7906137e8565b80601f0160208091040260200160405190810160405280929190818152602001828054610bf3906137e8565b8015610c405780601f10610c1557610100808354040283529160200191610c40565b820191906000526020600020905b815481529060010190602001808311610c2357829003601f168201915b5050505050908060010160009054906101000a900473ffffffffffffffffffffffffffffffffffffffff16908060020154908060030154908060040154908060050154908060060154908060070154905088565b6060600a805480602002602001604051908101604052809291908181526020016000905b82821015610e0f578382906000526020600020906008020160405180610100016040529081600082018054610cec906137e8565b80601f0160208091040260200160405190810160405280929190818152602001828054610d18906137e8565b8015610d655780601f10610d3a57610100808354040283529160200191610d65565b820191906000526020600020905b815481529060010190602001808311610d4857829003601f168201915b505050505081526020016001820160009054906101000a900473ffffffffffffffffffffffffffffffffffffffff1673ffffffffffffffffffffffffffffffffffffffff1673ffffffffffffffffffffffffffffffffffffffff168152602001600282015481526020016003820154815260200160048201548152602001600582015481526020016006820154815260200160078201548152505081526020019060010190610cb8565b50505050905090565b6000806002600084815260200190815260200160002060009054906101000a900473ffffffffffffffffffffffffffffffffffffffff169050600073ffffffffffffffffffffffffffffffffffffffff168173ffffffffffffffffffffffffffffffffffffffff161415610ec1576040517f08c379a0000000000000000000000000000000000000000000000000000000008152600401610eb890613432565b60405180910390fd5b80915050919050565b60008073ffffffffffffffffffffffffffffffffffffffff168273ffffffffffffffffffffffffffffffffffffffff161415610f3b576040517f08c379a0000000000000000000000000000000000000000000000000000000008152600401610f3290613412565b60405180910390fd5b600360008373ffffffffffffffffffffffffffffffffffffffff1673ffffffffffffffffffffffffffffffffffffffff168152602001908152602001600020549050919050565b610f8a6126f7565b600a600183610f9991906136f4565b81548110610fd0577f4e487b7100000000000000000000000000000000000000000000000000000000600052603260045260246000fd5b906000526020600020906008020160405180610100016040529081600082018054610ffa906137e8565b80601f0160208091040260200160405190810160405280929190818152602001828054611026906137e8565b80156110735780601f1061104857610100808354040283529160200191611073565b820191906000526020600020905b81548152906001019060200180831161105657829003601f168201915b505050505081526020016001820160009054906101000a900473ffffffffffffffffffffffffffffffffffffffff1673ffffffffffffffffffffffffffffffffffffffff1673ffffffffffffffffffffffffffffffffffffffff16815260200160028201548152602001600382015481526020016004820154815260200160058201548152602001600682015481526020016007820154815250509050919050565b606060018054611124906137e8565b80601f0160208091040260200160405190810160405280929190818152602001828054611150906137e8565b801561119d5780601f106111725761010080835404028352916020019161119d565b820191906000526020600020905b81548152906001019060200180831161118057829003601f168201915b5050505050905090565b6111af612752565b60096001836111be91906136f4565b815481106111f5577f4e487b7100000000000000000000000000000000000000000000000000000000600052603260045260246000fd5b90600052602060002090600802016040518061010001604052908160008201805461121f906137e8565b80601f016020809104026020016040519081016040528092919081815260200182805461124b906137e8565b80156112985780601f1061126d57610100808354040283529160200191611298565b820191906000526020600020905b81548152906001019060200180831161127b57829003601f168201915b505050505081526020016001820160009054906101000a900473ffffffffffffffffffffffffffffffffffffffff1673ffffffffffffffffffffffffffffffffffffffff1673ffffffffffffffffffffffffffffffffffffffff16815260200160028201548152602001600382015481526020016004820154815260200160058201548152602001600682015481526020016007820154815250509050919050565b6000600854905060075481111561135057600080fd5b600073ffffffffffffffffffffffffffffffffffffffff16600960018461137791906136f4565b815481106113ae577f4e487b7100000000000000000000000000000000000000000000000000000000600052603260045260246000fd5b906000526020600020906008020160010160009054906101000a900473ffffffffffffffffffffffffffffffffffffffff1673ffffffffffffffffffffffffffffffffffffffff161461140057600080fd5b600073ffffffffffffffffffffffffffffffffffffffff16600a60018461142791906136f4565b8154811061145e577f4e487b7100000000000000000000000000000000000000000000000000000000600052603260045260246000fd5b906000526020600020906008020160010160009054906101000a900473ffffffffffffffffffffffffffffffffffffffff1673ffffffffffffffffffffffffffffffffffffffff16146114b057600080fd5b6006543410156114bf57600080fd5b3360096001846114cf91906136f4565b81548110611506577f4e487b7100000000000000000000000000000000000000000000000000000000600052603260045260246000fd5b906000526020600020906008020160010160006101000a81548173ffffffffffffffffffffffffffffffffffffffff021916908373ffffffffffffffffffffffffffffffffffffffff16021790555033600a60018461156591906136f4565b8154811061159c577f4e487b7100000000000000000000000000000000000000000000000000000000600052603260045260246000fd5b906000526020600020906008020160010160006101000a81548173ffffffffffffffffffffffffffffffffffffffff021916908373ffffffffffffffffffffffffffffffffffffffff16021790555060016008546115fa919061366d565b60088190555061160a3383611f53565b5050565b611620611619611b4d565b8383611f71565b5050565b61163561162f611b4d565b83611c0e565b611674576040517f08c379a000000000000000000000000000000000000000000000000000000000815260040161166b906134d2565b60405180910390fd5b82600960018461168491906136f4565b815481106116bb577f4e487b7100000000000000000000000000000000000000000000000000000000600052603260045260246000fd5b906000526020600020906008020160010160006101000a81548173ffffffffffffffffffffffffffffffffffffffff021916908373ffffffffffffffffffffffffffffffffffffffff16021790555082600a60018461171a91906136f4565b81548110611751577f4e487b7100000000000000000000000000000000000000000000000000000000600052603260045260246000fd5b906000526020600020906008020160010160006101000a81548173ffffffffffffffffffffffffffffffffffffffff021916908373ffffffffffffffffffffffffffffffffffffffff1602179055506117ac848484846120de565b50505050565b60606117bd82611ae1565b6117fc576040517f08c379a00000000000000000000000000000000000000000000000000000000081526004016117f390613492565b60405180910390fd5b600061180661213a565b905060008151116118265760405180602001604052806000815250611851565b8061183084612151565b6040516020016118419291906131a1565b6040516020818303038152906040525b915050919050565b60075481565b60606009805480602002602001604051908101604052809291908181526020016000905b828210156119da5783829060005260206000209060080201604051806101000160405290816000820180546118b7906137e8565b80601f01602080910402602001604051908101604052809291908181526020018280546118e3906137e8565b80156119305780601f1061190557610100808354040283529160200191611930565b820191906000526020600020905b81548152906001019060200180831161191357829003601f168201915b505050505081526020016001820160009054906101000a900473ffffffffffffffffffffffffffffffffffffffff1673ffffffffffffffffffffffffffffffffffffffff1673ffffffffffffffffffffffffffffffffffffffff168152602001600282015481526020016003820154815260200160048201548152602001600582015481526020016006820154815260200160078201548152505081526020019060010190611883565b50505050905090565b6000600560008473ffffffffffffffffffffffffffffffffffffffff1673ffffffffffffffffffffffffffffffffffffffff16815260200190815260200160002060008373ffffffffffffffffffffffffffffffffffffffff1673ffffffffffffffffffffffffffffffffffffffff16815260200190815260200160002060009054906101000a900460ff16905092915050565b60007f01ffc9a7000000000000000000000000000000000000000000000000000000007bffffffffffffffffffffffffffffffffffffffffffffffffffffffff1916827bffffffffffffffffffffffffffffffffffffffffffffffffffffffff1916149050919050565b60008073ffffffffffffffffffffffffffffffffffffffff166002600084815260200190815260200160002060009054906101000a900473ffffffffffffffffffffffffffffffffffffffff1673ffffffffffffffffffffffffffffffffffffffff1614159050919050565b600033905090565b816004600083815260200190815260200160002060006101000a81548173ffffffffffffffffffffffffffffffffffffffff021916908373ffffffffffffffffffffffffffffffffffffffff160217905550808273ffffffffffffffffffffffffffffffffffffffff16611bc883610e18565b73ffffffffffffffffffffffffffffffffffffffff167f8c5be1e5ebec7d5bd14f71427d1e84f3dd0314c0f7b2291e5b200ac8c7c3b92560405160405180910390a45050565b6000611c1982611ae1565b611c58576040517f08c379a0000000000000000000000000000000000000000000000000000000008152600401611c4f906133d2565b60405180910390fd5b6000611c6383610e18565b90508073ffffffffffffffffffffffffffffffffffffffff168473ffffffffffffffffffffffffffffffffffffffff161480611ca55750611ca481856119e3565b5b80611ce357508373ffffffffffffffffffffffffffffffffffffffff16611ccb8461073f565b73ffffffffffffffffffffffffffffffffffffffff16145b91505092915050565b8273ffffffffffffffffffffffffffffffffffffffff16611d0c82610e18565b73ffffffffffffffffffffffffffffffffffffffff1614611d62576040517f08c379a0000000000000000000000000000000000000000000000000000000008152600401611d5990613352565b60405180910390fd5b600073ffffffffffffffffffffffffffffffffffffffff168273ffffffffffffffffffffffffffffffffffffffff161415611dd2576040517f08c379a0000000000000000000000000000000000000000000000000000000008152600401611dc990613392565b60405180910390fd5b611ddd8383836122fe565b611de8600082611b55565b6001600360008573ffffffffffffffffffffffffffffffffffffffff1673ffffffffffffffffffffffffffffffffffffffff1681526020019081526020016000206000828254611e3891906136f4565b925050819055506001600360008473ffffffffffffffffffffffffffffffffffffffff1673ffffffffffffffffffffffffffffffffffffffff1681526020019081526020016000206000828254611e8f919061366d565b92505081905550816002600083815260200190815260200160002060006101000a81548173ffffffffffffffffffffffffffffffffffffffff021916908373ffffffffffffffffffffffffffffffffffffffff160217905550808273ffffffffffffffffffffffffffffffffffffffff168473ffffffffffffffffffffffffffffffffffffffff167fddf252ad1be2c89b69c2b068fc378daa952ba7f163c4a11628f55a4df523b3ef60405160405180910390a4611f4e838383612303565b505050565b611f6d828260405180602001604052806000815250612308565b5050565b8173ffffffffffffffffffffffffffffffffffffffff168373ffffffffffffffffffffffffffffffffffffffff161415611fe0576040517f08c379a0000000000000000000000000000000000000000000000000000000008152600401611fd7906133b2565b60405180910390fd5b80600560008573ffffffffffffffffffffffffffffffffffffffff1673ffffffffffffffffffffffffffffffffffffffff16815260200190815260200160002060008473ffffffffffffffffffffffffffffffffffffffff1673ffffffffffffffffffffffffffffffffffffffff16815260200190815260200160002060006101000a81548160ff0219169083151502179055508173ffffffffffffffffffffffffffffffffffffffff168373ffffffffffffffffffffffffffffffffffffffff167f17307eab39ab6107e8899845ad3d59bd9653f200f220920489ca2b5937696c31836040516120d19190613270565b60405180910390a3505050565b6120e9848484611cec565b6120f584848484612363565b612134576040517f08c379a000000000000000000000000000000000000000000000000000000000815260040161212b90613332565b60405180910390fd5b50505050565b606060405180602001604052806000815250905090565b60606000821415612199576040518060400160405280600181526020017f300000000000000000000000000000000000000000000000000000000000000081525090506122f9565b600082905060005b600082146121cb5780806121b49061384b565b915050600a826121c491906136c3565b91506121a1565b60008167ffffffffffffffff81111561220d577f4e487b7100000000000000000000000000000000000000000000000000000000600052604160045260246000fd5b6040519080825280601f01601f19166020018201604052801561223f5781602001600182028036833780820191505090505b5090505b600085146122f25760018261225891906136f4565b9150600a856122679190613894565b6030612273919061366d565b60f81b8183815181106122af577f4e487b7100000000000000000000000000000000000000000000000000000000600052603260045260246000fd5b60200101907effffffffffffffffffffffffffffffffffffffffffffffffffffffffffffff1916908160001a905350600a856122eb91906136c3565b9450612243565b8093505050505b919050565b505050565b505050565b61231283836124fa565b61231f6000848484612363565b61235e576040517f08c379a000000000000000000000000000000000000000000000000000000000815260040161235590613332565b60405180910390fd5b505050565b60006123848473ffffffffffffffffffffffffffffffffffffffff166126d4565b156124ed578373ffffffffffffffffffffffffffffffffffffffff1663150b7a026123ad611b4d565b8786866040518563ffffffff1660e01b81526004016123cf94939291906131e0565b602060405180830381600087803b1580156123e957600080fd5b505af192505050801561241a57506040513d601f19601f820116820180604052508101906124179190612a4e565b60015b61249d573d806000811461244a576040519150601f19603f3d011682016040523d82523d6000602084013e61244f565b606091505b50600081511415612495576040517f08c379a000000000000000000000000000000000000000000000000000000000815260040161248c90613332565b60405180910390fd5b805181602001fd5b63150b7a0260e01b7bffffffffffffffffffffffffffffffffffffffffffffffffffffffff1916817bffffffffffffffffffffffffffffffffffffffffffffffffffffffff1916149150506124f2565b600190505b949350505050565b600073ffffffffffffffffffffffffffffffffffffffff168273ffffffffffffffffffffffffffffffffffffffff16141561256a576040517f08c379a000000000000000000000000000000000000000000000000000000000815260040161256190613452565b60405180910390fd5b61257381611ae1565b156125b3576040517f08c379a00000000000000000000000000000000000000000000000000000000081526004016125aa90613372565b60405180910390fd5b6125bf600083836122fe565b6001600360008473ffffffffffffffffffffffffffffffffffffffff1673ffffffffffffffffffffffffffffffffffffffff168152602001908152602001600020600082825461260f919061366d565b92505081905550816002600083815260200190815260200160002060006101000a81548173ffffffffffffffffffffffffffffffffffffffff021916908373ffffffffffffffffffffffffffffffffffffffff160217905550808273ffffffffffffffffffffffffffffffffffffffff16600073ffffffffffffffffffffffffffffffffffffffff167fddf252ad1be2c89b69c2b068fc378daa952ba7f163c4a11628f55a4df523b3ef60405160405180910390a46126d060008383612303565b5050565b6000808273ffffffffffffffffffffffffffffffffffffffff163b119050919050565b60405180610100016040528060608152602001600073ffffffffffffffffffffffffffffffffffffffff1681526020016000815260200160008152602001600081526020016000815260200160008152602001600081525090565b60405180610100016040528060608152602001600073ffffffffffffffffffffffffffffffffffffffff1681526020016000815260200160008152602001600081526020016000815260200160008152602001600081525090565b60006127c06127bb84613576565b613551565b9050828152602081018484840111156127d857600080fd5b6127e38482856137a6565b509392505050565b6000813590506127fa81613d72565b92915050565b60008135905061280f81613d89565b92915050565b60008135905061282481613da0565b92915050565b60008151905061283981613da0565b92915050565b600082601f83011261285057600080fd5b81356128608482602086016127ad565b91505092915050565b60008135905061287881613db7565b92915050565b60006020828403121561289057600080fd5b600061289e848285016127eb565b91505092915050565b600080604083850312156128ba57600080fd5b60006128c8858286016127eb565b92505060206128d9858286016127eb565b9150509250929050565b6000806000606084860312156128f857600080fd5b6000612906868287016127eb565b9350506020612917868287016127eb565b925050604061292886828701612869565b9150509250925092565b6000806000806080858703121561294857600080fd5b6000612956878288016127eb565b9450506020612967878288016127eb565b935050604061297887828801612869565b925050606085013567ffffffffffffffff81111561299557600080fd5b6129a18782880161283f565b91505092959194509250565b600080604083850312156129c057600080fd5b60006129ce858286016127eb565b92505060206129df85828601612800565b9150509250929050565b600080604083850312156129fc57600080fd5b6000612a0a858286016127eb565b9250506020612a1b85828601612869565b9150509250929050565b600060208284031215612a3757600080fd5b6000612a4584828501612815565b91505092915050565b600060208284031215612a6057600080fd5b6000612a6e8482850161282a565b91505092915050565b600060208284031215612a8957600080fd5b6000612a9784828501612869565b91505092915050565b6000612aac8383612ec3565b905092915050565b6000612ac08383613023565b905092915050565b612ad181613728565b82525050565b612ae081613728565b82525050565b6000612af1826135c7565b612afb818561360d565b935083602082028501612b0d856135a7565b8060005b85811015612b495784840389528151612b2a8582612aa0565b9450612b35836135f3565b925060208a01995050600181019050612b11565b50829750879550505050505092915050565b6000612b66826135d2565b612b70818561361e565b935083602082028501612b82856135b7565b8060005b85811015612bbe5784840389528151612b9f8582612ab4565b9450612baa83613600565b925060208a01995050600181019050612b86565b50829750879550505050505092915050565b612bd98161373a565b82525050565b6000612bea826135dd565b612bf4818561362f565b9350612c048185602086016137b5565b612c0d81613981565b840191505092915050565b612c2181613772565b82525050565b612c3081613772565b82525050565b6000612c41826135e8565b612c4b8185613640565b9350612c5b8185602086016137b5565b612c6481613981565b840191505092915050565b6000612c7a826135e8565b612c848185613651565b9350612c948185602086016137b5565b612c9d81613981565b840191505092915050565b6000612cb3826135e8565b612cbd8185613662565b9350612ccd8185602086016137b5565b80840191505092915050565b6000612ce6603283613651565b9150612cf182613992565b604082019050919050565b6000612d09602583613651565b9150612d14826139e1565b604082019050919050565b6000612d2c601c83613651565b9150612d3782613a30565b602082019050919050565b6000612d4f602483613651565b9150612d5a82613a59565b604082019050919050565b6000612d72601983613651565b9150612d7d82613aa8565b602082019050919050565b6000612d95602c83613651565b9150612da082613ad1565b604082019050919050565b6000612db8603883613651565b9150612dc382613b20565b604082019050919050565b6000612ddb602a83613651565b9150612de682613b6f565b604082019050919050565b6000612dfe602983613651565b9150612e0982613bbe565b604082019050919050565b6000612e21602083613651565b9150612e2c82613c0d565b602082019050919050565b6000612e44602c83613651565b9150612e4f82613c36565b604082019050919050565b6000612e67602f83613651565b9150612e7282613c85565b604082019050919050565b6000612e8a602183613651565b9150612e9582613cd4565b604082019050919050565b6000612ead603183613651565b9150612eb882613d23565b604082019050919050565b6000610100830160008301518482036000860152612ee18282612c36565b9150506020830151612ef66020860182612ac8565b506040830151612f096040860182612c18565b506060830151612f1c6060860182612c18565b506080830151612f2f6080860182612c18565b5060a0830151612f4260a0860182613183565b5060c0830151612f5560c0860182613183565b5060e0830151612f6860e0860182613183565b508091505092915050565b6000610100830160008301518482036000860152612f918282612c36565b9150506020830151612fa66020860182612ac8565b506040830151612fb96040860182612c18565b506060830151612fcc6060860182612c18565b506080830151612fdf6080860182612c18565b5060a0830151612ff260a0860182613183565b5060c083015161300560c0860182613183565b5060e083015161301860e0860182613183565b508091505092915050565b60006101008301600083015184820360008601526130418282612c36565b91505060208301516130566020860182612ac8565b5060408301516130696040860182612c18565b50606083015161307c6060860182612c18565b50608083015161308f6080860182612c18565b5060a08301516130a260a0860182613183565b5060c08301516130b560c0860182613183565b5060e08301516130c860e0860182613183565b508091505092915050565b60006101008301600083015184820360008601526130f18282612c36565b91505060208301516131066020860182612ac8565b5060408301516131196040860182612c18565b50606083015161312c6060860182612c18565b50608083015161313f6080860182612c18565b5060a083015161315260a0860182613183565b5060c083015161316560c0860182613183565b5060e083015161317860e0860182613183565b508091505092915050565b61318c8161379c565b82525050565b61319b8161379c565b82525050565b60006131ad8285612ca8565b91506131b98284612ca8565b91508190509392505050565b60006020820190506131da6000830184612ad7565b92915050565b60006080820190506131f56000830187612ad7565b6132026020830186612ad7565b61320f6040830185613192565b81810360608301526132218184612bdf565b905095945050505050565b600060208201905081810360008301526132468184612ae6565b905092915050565b600060208201905081810360008301526132688184612b5b565b905092915050565b60006020820190506132856000830184612bd0565b92915050565b600060208201905081810360008301526132a58184612c6f565b905092915050565b60006101008201905081810360008301526132c8818b612c6f565b90506132d7602083018a612ad7565b6132e46040830189612c27565b6132f16060830188612c27565b6132fe6080830187612c27565b61330b60a0830186613192565b61331860c0830185613192565b61332560e0830184613192565b9998505050505050505050565b6000602082019050818103600083015261334b81612cd9565b9050919050565b6000602082019050818103600083015261336b81612cfc565b9050919050565b6000602082019050818103600083015261338b81612d1f565b9050919050565b600060208201905081810360008301526133ab81612d42565b9050919050565b600060208201905081810360008301526133cb81612d65565b9050919050565b600060208201905081810360008301526133eb81612d88565b9050919050565b6000602082019050818103600083015261340b81612dab565b9050919050565b6000602082019050818103600083015261342b81612dce565b9050919050565b6000602082019050818103600083015261344b81612df1565b9050919050565b6000602082019050818103600083015261346b81612e14565b9050919050565b6000602082019050818103600083015261348b81612e37565b9050919050565b600060208201905081810360008301526134ab81612e5a565b9050919050565b600060208201905081810360008301526134cb81612e7d565b9050919050565b600060208201905081810360008301526134eb81612ea0565b9050919050565b6000602082019050818103600083015261350c8184612f73565b905092915050565b6000602082019050818103600083015261352e81846130d3565b905092915050565b600060208201905061354b6000830184613192565b92915050565b600061355b61356c565b9050613567828261381a565b919050565b6000604051905090565b600067ffffffffffffffff82111561359157613590613952565b5b61359a82613981565b9050602081019050919050565b6000819050602082019050919050565b6000819050602082019050919050565b600081519050919050565b600081519050919050565b600081519050919050565b600081519050919050565b6000602082019050919050565b6000602082019050919050565b600082825260208201905092915050565b600082825260208201905092915050565b600082825260208201905092915050565b600082825260208201905092915050565b600082825260208201905092915050565b600081905092915050565b60006136788261379c565b91506136838361379c565b9250827fffffffffffffffffffffffffffffffffffffffffffffffffffffffffffffffff038211156136b8576136b76138c5565b5b828201905092915050565b60006136ce8261379c565b91506136d98361379c565b9250826136e9576136e86138f4565b5b828204905092915050565b60006136ff8261379c565b915061370a8361379c565b92508282101561371d5761371c6138c5565b5b828203905092915050565b60006137338261377c565b9050919050565b60008115159050919050565b60007fffffffff0000000000000000000000000000000000000000000000000000000082169050919050565b6000819050919050565b600073ffffffffffffffffffffffffffffffffffffffff82169050919050565b6000819050919050565b82818337600083830152505050565b60005b838110156137d35780820151818401526020810190506137b8565b838111156137e2576000848401525b50505050565b6000600282049050600182168061380057607f821691505b6020821081141561381457613813613923565b5b50919050565b61382382613981565b810181811067ffffffffffffffff8211171561384257613841613952565b5b80604052505050565b60006138568261379c565b91507fffffffffffffffffffffffffffffffffffffffffffffffffffffffffffffffff821415613889576138886138c5565b5b600182019050919050565b600061389f8261379c565b91506138aa8361379c565b9250826138ba576138b96138f4565b5b828206905092915050565b7f4e487b7100000000000000000000000000000000000000000000000000000000600052601160045260246000fd5b7f4e487b7100000000000000000000000000000000000000000000000000000000600052601260045260246000fd5b7f4e487b7100000000000000000000000000000000000000000000000000000000600052602260045260246000fd5b7f4e487b7100000000000000000000000000000000000000000000000000000000600052604160045260246000fd5b6000601f19601f8301169050919050565b7f4552433732313a207472616e7366657220746f206e6f6e20455243373231526560008201527f63656976657220696d706c656d656e7465720000000000000000000000000000602082015250565b7f4552433732313a207472616e736665722066726f6d20696e636f72726563742060008201527f6f776e6572000000000000000000000000000000000000000000000000000000602082015250565b7f4552433732313a20746f6b656e20616c7265616479206d696e74656400000000600082015250565b7f4552433732313a207472616e7366657220746f20746865207a65726f2061646460008201527f7265737300000000000000000000000000000000000000000000000000000000602082015250565b7f4552433732313a20617070726f766520746f2063616c6c657200000000000000600082015250565b7f4552433732313a206f70657261746f7220717565727920666f72206e6f6e657860008201527f697374656e7420746f6b656e0000000000000000000000000000000000000000602082015250565b7f4552433732313a20617070726f76652063616c6c6572206973206e6f74206f7760008201527f6e6572206e6f7220617070726f76656420666f7220616c6c0000000000000000602082015250565b7f4552433732313a2062616c616e636520717565727920666f7220746865207a6560008201527f726f206164647265737300000000000000000000000000000000000000000000602082015250565b7f4552433732313a206f776e657220717565727920666f72206e6f6e657869737460008201527f656e7420746f6b656e0000000000000000000000000000000000000000000000602082015250565b7f4552433732313a206d696e7420746f20746865207a65726f2061646472657373600082015250565b7f4552433732313a20617070726f76656420717565727920666f72206e6f6e657860008201527f697374656e7420746f6b656e0000000000000000000000000000000000000000602082015250565b7f4552433732314d657461646174613a2055524920717565727920666f72206e6f60008201527f6e6578697374656e7420746f6b656e0000000000000000000000000000000000602082015250565b7f4552433732313a20617070726f76616c20746f2063757272656e74206f776e6560008201527f7200000000000000000000000000000000000000000000000000000000000000602082015250565b7f4552433732313a207472616e736665722063616c6c6572206973206e6f74206f60008201527f776e6572206e6f7220617070726f766564000000000000000000000000000000602082015250565b613d7b81613728565b8114613d8657600080fd5b50565b613d928161373a565b8114613d9d57600080fd5b50565b613da981613746565b8114613db457600080fd5b50565b613dc08161379c565b8114613dcb57600080fd5b5056fea2646970667358221220ee3b0fd617a7a3b21915ab0821ba6bdf6a45a621e1ab5d068b50ef2a8852d36064736f6c63430008020033",
  "immutableReferences": {},
  "source": "// SPDX-License-Identifier: MIT\r\npragma solidity ^0.8.0;\r\n\r\nimport \"@openzeppelin/contracts/token/ERC721/ERC721.sol\";\r\n\r\ncontract Land is ERC721 {\r\n    uint256 public cost = 1 ether;\r\n    uint256 public maxSupply = 5;\r\n    uint256 public totalSupply = 0;\r\n\r\n    struct Building {\r\n        string name;\r\n        address owner;\r\n        int256 posX;\r\n        int256 posY;\r\n        int256 posZ;\r\n        uint256 sizeX;\r\n        uint256 sizeY;\r\n        uint256 sizeZ;\r\n    }\r\n\r\n    struct Plaza {\r\n        string name;\r\n        address owner;\r\n        int256 posX;\r\n        int256 posY;\r\n        int256 posZ;\r\n        uint256 sizeX;\r\n        uint256 sizeY;\r\n        uint256 sizeZ;\r\n    }\r\n\r\n    Building[] public buildings;\r\n    Plaza[] public plazas;\r\n\r\n    constructor(\r\n        string memory _name,\r\n        string memory _symbol,\r\n        uint256 _cost\r\n    ) ERC721(_name, _symbol) {\r\n        cost = _cost;\r\n\r\n        buildings.push(\r\n            Building(\"City Hall\", address(0x0), 0, 0, 0, 10, 10, 10)\r\n        );\r\n        buildings.push(Building(\"Stadium\", address(0x0), 0, 10, 0, 10, 5, 3));\r\n        buildings.push(\r\n            Building(\"Drexel University\", address(0x0), 0, -10, 0, 10, 9, 3)\r\n        );\r\n        buildings.push(\r\n            Building(\"Shopping Plaza 1\", address(0x0), 10, 0, 0, 5, 25, 2)\r\n        );\r\n        buildings.push(\r\n            Building(\"Shopping Plaza 2\", address(0x0), -10, 0, 0, 5, 25, 5)\r\n        );\r\n        plazas.push(\r\n            Plaza(\"Shopping Plaza 3\", address(0x0), -20, 10, 30, 5, 25, 15)\r\n        );\r\n    }\r\n\r\n    function mint(uint256 _id) public payable {\r\n        uint256 supply = totalSupply;\r\n        require(supply <= maxSupply);\r\n        require(buildings[_id - 1].owner == address(0x0));\r\n        require(plazas[_id - 1].owner == address(0x0));\r\n        require(msg.value >= cost);\r\n\r\n        // tokenID always starts from 1, but our array starts from 0\r\n        buildings[_id - 1].owner = msg.sender;\r\n        plazas[_id - 1].owner = msg.sender;\r\n        totalSupply = totalSupply + 1;\r\n\r\n        _safeMint(msg.sender, _id);\r\n    }\r\n\r\n    function transferFrom(\r\n        address from,\r\n        address to,\r\n        uint256 tokenId\r\n    ) public override {\r\n        require(\r\n            _isApprovedOrOwner(_msgSender(), tokenId),\r\n            \"ERC721: transfer caller is not owner nor approved\"\r\n        );\r\n\r\n        // Update Building ownership\r\n        buildings[tokenId - 1].owner = to;\r\n        plazas[tokenId - 1].owner = to;\r\n\r\n        _transfer(from, to, tokenId);\r\n    }\r\n\r\n    function safeTransferFrom(\r\n        address from,\r\n        address to,\r\n        uint256 tokenId,\r\n        bytes memory _data\r\n    ) public override {\r\n        require(\r\n            _isApprovedOrOwner(_msgSender(), tokenId),\r\n            \"ERC721: transfer caller is not owner nor approved\"\r\n        );\r\n\r\n        // Update Building ownership\r\n        buildings[tokenId - 1].owner = to;\r\n        plazas[tokenId - 1].owner = to;\r\n\r\n        _safeTransfer(from, to, tokenId, _data);\r\n    }\r\n\r\n    // Public View Functions\r\n    function getBuildings() public view returns (Building[] memory) {\r\n        return buildings;\r\n    }\r\n\r\n    function getBuilding(uint256 _id) public view returns (Building memory) {\r\n        return buildings[_id - 1];\r\n    }\r\n\r\n    function getPlazas() public view returns (Plaza[] memory) {\r\n        return plazas;\r\n    }\r\n\r\n    function getPlaza(uint256 _id) public view returns (Plaza memory) {\r\n        return plazas[_id - 1];\r\n    }\r\n}\r\n",
  "sourcePath": "C:\\Users\\chris\\metaverse\\src\\contracts\\Land.sol",
  "compiler": {
    "name": "solc",
    "version": "0.8.2+commit.661d1103.Emscripten.clang"
  },
  "schemaVersion": "3.4.6",
  "updatedAt": "2022-05-11T23:26:04.039Z",
  "networkType": "ethereum",
  "devdoc": {
    "kind": "dev",
    "methods": {
      "approve(address,uint256)": {
        "details": "See {IERC721-approve}."
      },
      "balanceOf(address)": {
        "details": "See {IERC721-balanceOf}."
      },
      "getApproved(uint256)": {
        "details": "See {IERC721-getApproved}."
      },
      "isApprovedForAll(address,address)": {
        "details": "See {IERC721-isApprovedForAll}."
      },
      "name()": {
        "details": "See {IERC721Metadata-name}."
      },
      "ownerOf(uint256)": {
        "details": "See {IERC721-ownerOf}."
      },
      "safeTransferFrom(address,address,uint256)": {
        "details": "See {IERC721-safeTransferFrom}."
      },
      "safeTransferFrom(address,address,uint256,bytes)": {
        "details": "See {IERC721-safeTransferFrom}."
      },
      "setApprovalForAll(address,bool)": {
        "details": "See {IERC721-setApprovalForAll}."
      },
      "supportsInterface(bytes4)": {
        "details": "See {IERC165-supportsInterface}."
      },
      "symbol()": {
        "details": "See {IERC721Metadata-symbol}."
      },
      "tokenURI(uint256)": {
        "details": "See {IERC721Metadata-tokenURI}."
      },
      "transferFrom(address,address,uint256)": {
        "details": "See {IERC721-transferFrom}."
      }
    },
    "version": 1
  },
  "userdoc": {
    "kind": "user",
    "methods": {},
    "version": 1
  }
}